:100000000C943E4B0C945F4B0C948F9F0C945F4B65
:100010000C945F4B0C945F4B0C945F4B0C945F4BB8
:100020000C945F4B0C945F4B0C945F4B0C94529C64
:100030000C945F4B0C945F4B0C94C0930C945F4BEF
:100040000C945F4B0C945F4B0C945F4B0C945F4B88
:100050000C945F4B0C945F4B0C945F4B0C945F4B78
:100060000C945F4B0C94A09F0C94369F0C945F4BA8
:100070000C947FA10C9420A10C9457A10C945F4B7D
:100080000C94D99C0C945F4B0C945F4B0C945F4B7D
:100090000C945F4B0C945F4B0C945F4B0C945F4B38
:1000A0000C945F4B0C945F4B0C945F4B0C94CEC93B
:1000B0000C9472CA0C945F4B0C945F4B0C949A9501
:1000C0000C945F4B0C945F4B0C945F4B0C945F4B08
:1000D0000C945F4B0C945F4B0C945F4B0C945F4BF8
:1000E0000C949CA40C945F4B0C945F4B0C945F4B52
:1000F0000C945F4B0C945F4B0C945F4B0C945F4BD8
:100100000C94A5C90C9449CA0C947CC90C9420CABF
:100110000C945F4B0C945F4B0C945F4B0C945F4BB7
:100120000C945F4B0C945F4B0C945F4B0C945F4BA7
:100130000C945F4B0C9415950C945F4B0C945F4B97
:100140000C945F4B0C945F4B0C945F4B0C945F4B87
:100150000C945F4B0C945F4B0C949BA40C945F4BE2
:100160000C945F4B0C945F4B0C945F4B0C945F4B67
:100170000C945F4B0C945F4B0C945F4B0C945F4B57
:100180000C945F4B0C945F4B0C945F4B0C945F4B47
:100190000C945F4B0C945F4B0C945F4B0C945F4B37
:1001A0000C94F7C90C949BCA0C945F4B0C945F4B56
:1001B0000C9456950C945F4B0C945F4B0C945F4BD6
:1001C0000C945F4B0C945F4B0C945F4B0C945F4B07
:1001D0000C945F4B0C945F4B0C945F4B0C945F4BF7
:1001E0000C945F4B0C945F4B084AD73B3BCE016E9F
:1001F00084BCBFFDC12F3D6C74319ABD56833DDA7E
:100200003D00C77F11BED9E4BB4C3E916BAAAABE8C
:10021000000000803F05A84CCDB2D44EB93836A9B5
:10022000020C50B9918688083CA6AAAA2ABE0000F2
:1002300000803F07634236B79BD8A71A3968561823
:10024000AEBAAB558C1D3CB7CC5763BD6DEDFD759B
:100250003EF6177231BF000000803F08000000BE6C
:10026000922449123EABAAAA2ABECDCCCC4C3E0069
:10027000000080BEABAAAAAA3E00000000BF00009A
:1002800000803F0000000000084178D3BB4387D1C5
:10029000133D190E3CC3BD4282AD2B3E68EC827605
:1002A000BED98FE1A93E4C80EFFFBE01C4FF7F3F66
:1002B0000000000000000C94CE790C94EDC20C9468
:1002C0009D9B0C9445770C9438780C94119A0C945F
:1002D00087750C9412780C946D640C9431760C94A0
:1002E000E4740C94BE750C943C8A0C94DE750C94EA
:1002F00029760C94E0570C94D2500C94A3980C944B
:10030000A7C80C9457610C947FC20C94DE740C94B3
:10031000EB750C94BE740C94F9650C940A740C94EF
:10032000F0A10C94389A0C945EC80C94E7C10C941C
:10033000E59B0C94E89B0C94CB770C944CCB0C94E1
:100340003F680C945B660C9439A60C94C7760C94A9
:10035000AF740C9471640C94F1C20C94B5600C945D
:10036000E1640C94999B0C942C760C940BCF0C9418
:100370006CCB0C9428510C946C6F0C942DA60C949F
:10038000A1880C94959B0C94F1600C9453660C948A
:1003900005780C9483BF0C94BA8B0C94E9650C948B
:1003A000FC600C943FC90C94E1650C94C9740C94E6
:1003B00073760C94E3990C945A760C94D9640C944B
:1003C000AE620C9466750C9449640C948BCB0C94BF
:1003D000F4770C9419760C9439CF0C9473520C94D6
:1003E000E9C20C94E8C80C9487980C945F660C944E
:1003F00040610C94F79B0C9484750C9452CB0C9434
:1004000019780C9451A60C9424620C9470CB0C9423
:1004100076660C943B780C94CBC80C9413C10C9466
:10042000FE770C94919B0C94BF630C9428A40C94BD
:100430006A680C9488760C94C7600C945A770C9474
:100440005FC90C94BB800C94FA9A0C94E6600C94EF
:1004500026660C94A9750C940F760C943D840C942C
:10046000BE8B0C948D9B0C94099A0C94E8750C949B
:10047000DC760C9456750C9479640C94CFA00C9493
:100480009B620C9496650C941E750C9455C90C9443
:1004900059BF0C94F9630C9471660C9445A60C94A6
:1004A00069A00C94569B0C94EDC30C94F1740C94BD
:1004B000DD640C94FA9B0C94D5640C94F49B0C941E
:1004C0004DA60C9431CF0C94DC9B0C9485630C945A
:1004D00050650C94058D0C94DD650C9449A60C9424
:1004E00069640C94DF6F0C9435780C94C1740C948F
:1004F000098A0C9451640C945E750C94D79E0C94EC
:10050000D2600C94FB770C94D29B0C94CB5C0C9433
:1005100024700C94E5640C9477D10C94F1760C94CF
:10052000F19B0C94B68B0C9491740C9430770C94D2
:10053000E5C20C942E630C9465640C94E9640C94ED
:10054000BB600C94C28B0C9484C80C9435A60C949C
:1005500008760C94C9680C9428640C945AC90C94BD
:10056000519B0C94FD9B0C9427990C946B660C94F6
:10057000C1600C9474C00C94E77A0C9408CC0C9471
:10058000EB9B0C94C4630C94E0890C9478880C94D5
:1005900008780C94E1740C941D680C94C6990C9422
:1005A0006F770C9463660C94AEA00C941EA30C940D
:1005B00067660C94EE680C942B780C94899B0C94D1
:1005C00053750C94A9990C94A5700C9457660C94CF
:1005D00074C30C948B750C94647B0C9407610C941D
:1005E000F5650C946E620C9459640C94A8C20C943A
:1005F00039700C94EF990C94E29B0C94009C0C9431
:100600002D850C94DC500C940A650C947D640C943C
:10061000C7670C945A750C9492650C9481640C9481
:10062000A3C30C945AC30C94C1D90C94DF9B0C94B3
:10063000F1650C94B2760C94B06F0C94D9650C945F
:10064000C5740C9445810C94FE670C9449750C9408
:1006500055640C941B770C940F780C94E5650C94FE
:100660004ACC0C94ED650C94EE9B0C9407640C94AE
:10067000E1C20C9431A60C9412990C94AF600C94C6
:10068000C3670C949D760C94F3990C946C680C944D
:100690008D680C9441810C94EB630C94CC610C94A8
:1006A00062750C949A600C94A3880C9441A60C94E7
:1006B0000D9A0C9444750C9435750C941C760C941E
:1006C000F2630C94EE740C9406770C942B650C94E6
:1006D00075640C943B690C9407C90C943D810C948F
:1006E00026C30C9474880C943DA60C94DE790C946B
:1006F00035C20C94A1680C94FA810C9495980C94D2
:1007000076880C9450C90C945B990C9454670C94A3
:100710003B760C9466A20C9484770C9413C00C94D2
:1007200026760C944D640C946E610C94C8500C9415
:10073000D4740C941E7B0C9485640C94B1740C944A
:10074000CE770C9410690C94417B0C9432780C9405
:1007500040760C945D640C94E86E0C94AD6A0C9435
:1007600012610C94EA530C9446C90C9400640C94E6
:10077000A9600C9449620C9461640C94B5680C9463
:10078000A7880C944BC90C94BB740C9440C30C9474
:1007900048A00C94888D0C94F96F0C94C5CE0C94E1
:1007A000F8990C94DD606E616E00696E66004E41D2
:1007B0004E494E495459494E46CDCCCC3D0AD723DB
:1007C0003C17B7D13877CC2B329595E6241FB14F23
:1007D0000A000020410000C84200401C4620BCBE68
:1007E0004CCA1B0E5AAEC59D7400407A10F35A00D5
:1007F000A0724E18090010A5D4E80000E87648174A
:100800000000E40B54020000CA9A3B000000E1F52E
:1008100005000080969800000040420F000000A0F4
:100820008601000000102700000000E8030000001F
:10083000006400000000000A000000000001000049
:100840000000002C76D888DC674F0823DFC1DFAEBC
:1008500059E1B1B796E5E3E453C63AE65199769685
:10086000E8E6C28426EB898C9B62ED407C6FFCEF4E
:10087000BC9C9F40F2BAA56FA5F490055A2AF75C7C
:10088000936B6CF9676DC11BFCE0E40D47FEF5202E
:10089000E6B500D0ED902E030094357705008084F6
:1008A0001E080000204E0A000000C80C333333330A
:1008B0000F986E12831141EF8D2114893BE6551676
:1008C000CFFEE6DB18D1844B381BF77C1D901DA4AE
:1008D000BBE424203284725E228100C9F124ECA1A1
:1008E000E53D275B257325735D2025732025732047
:1008F000706F736974696F6E2531382E3366257396
:100900000A005B257325735D202573202573206FF6
:1009100066667365742532302E336625730A005B74
:10092000257325735D202573207A65726F206261BF
:10093000636B6F66662531392E336625730A005B5B
:10094000257325735D202573206C617463682062B4
:1009500061636B6F66662531382E336625730A0036
:100960005B257325735D202573206C61746368209B
:1009700076656C6F636974792531332E3066257323
:100980002F6D696E0A005B257325735D202573202A
:100990007365617263682076656C6F63697479252D
:1009A00031322E306625732F6D696E0A005B257318
:1009B00025735D20257320737769746368206D61EA
:1009C0007825313764205B303D6F66662C313D6899
:1009D0006F6D696E672C323D6C696D69742C333DA7
:1009E0006C696D69742B686F6D696E675D0A005B79
:1009F000257325735D2025732073776974636820E0
:100A00006D696E25313764205B303D6F66662C3131
:100A10003D686F6D696E672C323D6C696D69742C31
:100A2000333D6C696D69742B686F6D696E675D0A23
:100A3000005B257325735D202573207261646975E1
:100A4000732076616C75652532302E346625730A05
:100A5000005B257325735D202573206A756E6374B2
:100A6000696F6E20646576696174696F6E253134D3
:100A70002E3466257320286C617267657220697355
:100A800020666173746572290A005B257325735DA6
:100A9000202573206A65726B20686F6D696E67250B
:100AA00031362E306625732F6D696E5E33202A2015
:100AB00031206D696C6C696F6E0A005B257325735C
:100AC0005D202573206A65726B206D6178696D7594
:100AD0006D2531352E306625732F6D696E5E33209E
:100AE0002A2031206D696C6C696F6E0A005B25737A
:100AF00025735D2025732074726176656C206D69A5
:100B00006E696D756D2531372E336625730A005B6E
:100B1000257325735D2025732074726176656C20C2
:100B20006D6178696D756D2531372E336625730AD1
:100B3000005B257325735D2025732076656C6F63DC
:100B4000697479206D6178696D756D2531312E304C
:100B50006625732F6D696E0A005B257325735D2012
:100B60002573206665656472617465206D617869BE
:100B70006D756D2531312E306625732F6D696E0AC6
:100B8000005B257325735D202573206178697320D0
:100B90006D6F6465253138642025730A005B7361CD
:100BA0005D20207370696E646C6520616374697682
:100BB0006520686967682F6C6F7725313264205B28
:100BC000303D41482C313D414C5D0A005B6D735D09
:100BD00020206D696E207365676D656E7420746981
:100BE0006D652531332E306620755365630A005BD1
:100BF0006D615D20206D696E206172632073656791
:100C00006D656E742531382E336625730A005B6D71
:100C10006C5D20206D696E206C696E652073656760
:100C20006D656E742531372E336625730A005B734C
:100C30006C5D2020736F6674206C696D697420652B
:100C40006E61626C65253132640A005B63745D20FD
:100C50002063686F7264616C20746F6C6572616E82
:100C600063652531372E346625730A005B6A615D42
:100C700020206A756E6374696F6E20616363656CB2
:100C800065726174696F6E25382E306625730A00AF
:100C90005B6764695D2064656661756C7420676379
:100CA0006F64652064697374616E6365206D6F6441
:100CB00065253264205B303D4739302C313D473962
:100CC000315D0A005B6770615D2064656661756C0B
:100CD000742067636F6465207061746820636F6E51
:100CE00074726F6C253364205B303D4736312C3194
:100CF0003D4736312E312C323D4736345D0A005B9C
:100D000067636F5D2064656661756C742067636FEF
:100D1000646520636F6F72642073797374656D25E9
:100D20003364205B312D3620284735342D47353943
:100D3000295D0A005B67756E5D2064656661756C90
:100D4000742067636F646520756E697473206D6FBE
:100D50006465253564205B303D4732302C313D479A
:100D600032315D0A005B67706C5D20646566617599
:100D70006C742067636F646520706C616E652531EB
:100D80003064205B303D4731372C313D4731382CC2
:100D9000323D4731395D0A0025632061786973204F
:100DA000686F6D696E672073746174653A25322EC1
:100DB00030660A00256320776F726B206F6666735A
:100DC00065743A2531322E336625730A0025632077
:100DD0006D616368696E6520706F736E3A2531319D
:100DE0002E336625730A00256320706F736974695A
:100DF0006F6E3A2531352E336625730A00546F6FB6
:100E00006C206E756D6265722020202020202020CD
:100E1000202025640A00466565642072617465209F
:100E20006D6F64653A20202020202025730A00443D
:100E3000697374616E6365206D6F64653A2020206C
:100E40002020202025730A0050617468204D6F64B3
:100E5000653A202020202020202020202025730AF1
:100E600000506C616E653A20202020202020202038
:100E700020202020202025730A004D6F74696F6E9A
:100E8000206D6F64653A202020202020202020251E
:100E9000730A00436F6F7264696E617465207379C1
:100EA0007374656D3A20202025730A00556E6974AD
:100EB000733A2020202020202020202020202020C5
:100EC0002025730A00486F6D696E67207374617422
:100ED000653A202020202020202025730A00466526
:100EE0006564686F6C642073746174653A202020B7
:100EF00020202025730A004D6F74696F6E20737473
:100F00006174653A202020202020202025730A00CB
:100F10004379636C652073746174653A20202020E6
:100F2000202020202025730A00526177206D616304
:100F300068696E652073746174653A20202025739A
:100F40000A004D616368696E652073746174653A67
:100F50002020202020202025730A004C696E652067
:100F60006E756D6265723A2531302E30660A004624
:100F700065656420726174653A2531362E336625C5
:100F8000732F6D696E0A0056656C6F636974793AE8
:100F90002531372E336625732F6D696E0A00F50FE4
:100FA000C40FA40F473935202D20756E6974732D39
:100FB0007065722D7265766F6C7574696F6E206DD9
:100FC0006F646500473934202D20756E6974732D68
:100FD0007065722D6D696E757465206D6F64652026
:100FE00028692E652E206665656472617465206DC2
:100FF0006F64652900473933202D20696E7665724C
:1010000073652074696D65206D6F64650031101122
:1010100010473931202D20696E6372656D656E74DD
:10102000616C2064697374616E6365206D6F6465C3
:1010300000473930202D206162736F6C7574652014
:1010400064697374616E6365206D6F6465008210FE
:101050006A105410473634202D20636F6E74696E09
:10106000756F7573206D6F6465004736312E3120C2
:101070002D2065786163742073746F70206D6F64C8
:101080006500473631202D206578616374207061DA
:101090007468206D6F646500BC10AD109E10473100
:1010A00039202D20595A20706C616E650047313807
:1010B000202D20585A20706C616E65004731372012
:1010C0002D20585920706C616E6500481136111D35
:1010D00011FC10D510473830202D2063616E6365F8
:1010E0006C206D6F74696F6E206D6F646520286E63
:1010F0006F6E65206163746976652900473320202F
:101100002D20636F756E74657220636C6F636B77EF
:1011100069736520617263206665656400473220EB
:10112000202D20636C6F636B776973652061726338
:10113000206665656400473120202D206C696E654E
:101140006172206665656400473020202D206C693F
:101150006E656172207472617665727365202873A2
:1011600065656B29000F12F511DB11C111A7118DF7
:10117000117311473539202D20636F6F7264696ECA
:101180006174652073797374656D20360047353856
:10119000202D20636F6F7264696E617465207379AE
:1011A0007374656D203500473537202D20636F6FD0
:1011B0007264696E6174652073797374656D20342F
:1011C00000473536202D20636F6F7264696E61743D
:1011D000652073797374656D203300473535202D94
:1011E00020636F6F7264696E6174652073797374C4
:1011F000656D203200473534202D20636F6F726497
:10120000696E6174652073797374656D2031004770
:101210003533202D206D616368696E6520636F6FC3
:101220007264696E6174652073797374656D0042D0
:10123000123C123512486F6D696E6700486F6D651C
:1012400064004E6F7420486F6D65640076127112F1
:101250006C12661261125812456E6420486F6C64FD
:1012600000486F6C6400446563656C00506C616E8F
:101270000053796E63004F666600891285128012F2
:10128000486F6C640052756E0053746F7000B31237
:10129000A912A3129C1298124A6F6700486F6D69D9
:1012A0006E670050726F6265004D616368696E69B8
:1012B0006E67004F666600E912E312DD12D812D4A1
:1012C00012CE12C51253687574646F776E0043793D
:1012D000636C6500456E640053746F7000416C610F
:1012E000726D00526561647900496E697469616C60
:1012F000697A696E67004C13461340133B1337132A
:1013000033132E13281322131B1317130E135368B2
:101310007574646F776E004A6F6700486F6D696E11
:1013200067004379636C650050726F626500486FB7
:101330006C640052756E00456E640053746F7000EB
:10134000416C61726D00526561647900496E697427
:1013500069616C697A696E670073135D1347323196
:10136000202D206D696C6C696D65746572206D6FE0
:10137000646500473230202D20696E6368657320F4
:101380006D6F646500AD13A21396138D135B7261CC
:10139000646975735D005B696E6869626974656430
:1013A0005D005B7374616E646172645D005B6469AF
:1013B0007361626C65645D00C713C313BE13206460
:1013C000656700206D6D0020696E00456E64206FBA
:1013D0006620636F6D6D616E642066696C650A00DE
:1013E000486F6D696E67206572726F72202D2025BF
:1013F0006320617869732073657474696E67732004
:101400006D6973636F6E6669677572656400456EBA
:101410007465722024626F6F743D3120746F206593
:101420006E7465722074686520626F6F74206C6FD3
:10143000616465722E0A000A0A0A23232320546974
:101440006E794720424F4F54204C4F414445522023
:1014500048656C70202323230A00456E7465722052
:1014600024646566613D3120746F20726573657414
:10147000207468652073797374656D20746F2074AF
:10148000686520666163746F727920646566617552
:101490006C742076616C7565732E0A5468697320CC
:1014A00077696C6C206F76657277726974652061FC
:1014B0006E79206368616E67657320796F75206847
:1014C000617665206D6164652E0A000A0A0A23238D
:1014D000232054696E794720524553544F5245207A
:1014E00044454641554C54532048656C7020232395
:1014F000230A00496E766F6B652073656C662074F5
:1015000065737420627920656E746572696E6720F8
:1015100024746573743D4E207768657265204E2093
:101520006973206F6E65206F663A0A202024746507
:1015300073743D312020736D6F6B65207465737417
:101540000A202024746573743D322020686F6D6911
:101550006E67207465737420202028796F75206D64
:10156000757374207472697020686F6D696E67207E
:101570007377697463686573290A2020247465731E
:10158000743D3320207371756172652074657374C6
:10159000202020286120736572696573206F6620A2
:1015A00073717561726573290A20202474657374E0
:1015B0003D342020617263207465737420202020E4
:1015C000202028736F6D65206C61726765206369E8
:1015D00072636C6573290A202024746573743D3529
:1015E00020206477656C6C20746573742020202043
:1015F000286D6F766573207370616365642062790E
:101600002031207365636F6E64206477656C6C7342
:10161000290A202024746573743D36202066656590
:1016200064686F6C6420746573742028656E7465DB
:1016300072202120616E64207E20746F20686F6CA0
:101640006420616E6420726573746172742C207200
:101650006573706563746976656C79290A20202446
:10166000746573743D3720204D20636F646573206B
:10167000746573742020284D20636F64657320693E
:101680006E7465726D696E676C65642077697468E5
:10169000206D6F766573290A202024746573743D6C
:1016A0003820204A534F4E20746573742020202028
:1016B00020286D6F74696F6E207465737420727565
:1016C0006E207573696E67204A534F4E20636F6DAD
:1016D0006D616E6473290A202024746573743D392A
:1016E0002020696E76657273652074696D6520745B
:1016F0006573740A202024746573743D3130207240
:101700006F74617279206D6F74696F6E2074657388
:10171000740A202024746573743D313120736D6127
:101720006C6C206D6F76657320746573740A20206D
:1017300024746573743D313220736C6F77206D6F44
:1017400076657320746573740A202024746573743D
:101750003D313320636F6F7264696E61746520730D
:10176000797374656D206F66667365742074657334
:101770007420284739322C204735342D47353929F4
:101780000A0A546573747320617373756D65206103
:101790002063656E7465726564205859206F7269A4
:1017A00067696E20616E64206174206C656173747A
:1017B0002038306D6D20636C656172616E636520E9
:1017C000696E20616C6C20646972656374696F6E08
:1017D000730A546573747320617373756D65205A51
:1017E00020686173206174206C65617374203430EB
:1017F0006D6D20706F7369697469766520636C65BF
:101800006172616E63650A546573747320737461E9
:101810007274207769746820612047302058302026
:101820005930205A30206D6F76650A486F6D696EA9
:1018300067206973207468652065786365707469D2
:101840006F6E2E204E6F20696E697469616C207016
:101850006F736974696F6E206F7220636C6561725B
:10186000616E636520697320617373756D65640AC9
:10187000000A0A0A2323232054696E79472053451E
:101880004C4620544553542048656C702023232334
:101890000A0045616368202420636F6D6D616E648A
:1018A0002061626F766520616C736F20646973706C
:1018B0006C6179732074686520746F6B656E206647
:1018C0006F7220656163682073657474696E672048
:1018D000696E205B205D20627261636B6574730AC0
:1018E000546F20766965772073657474696E6773C9
:1018F00020656E746572206120746F6B656E3A0AA4
:101900000A2020243C746F6B656E3E0A0A466F7293
:10191000206578616D706C65202479667220746F23
:1019200020646973706C6179207468652059206D3A
:101930006178206665656420726174650A0A546F77
:10194000207570646174652073657474696E677363
:1019500020656E74657220746F6B656E206571759D
:10196000616C732076616C75653A0A0A2020243C0C
:10197000746F6B656E3E3D3C76616C75653E0A0A20
:10198000466F72206578616D706C6520247966728F
:101990003D38303020746F20736574207468652082
:1019A00059206D61782066656564207261746520D8
:1019B000746F20383030206D6D2F6D696E757465D1
:1019C0000A466F7220636F6E66696775726174692B
:1019D0006F6E2064657461696C73207365653A206D
:1019E00068747470733A2F2F6769746875622E6318
:1019F0006F6D2F73796E746865746F732F54696E91
:101A000079472F77696B692F54696E79472D436F3A
:101A10006E66696775726174696F6E0A00546865F5
:101A2000736520636F6D6D616E64732061726520F4
:101A300061637469766520666F7220636F6E666994
:101A40006775726174696F6E3A0A20202473797326
:101A50002053686F772073797374656D20286765EC
:101A60006E6572616C292073657474696E67730AA0
:101A70002020243120202053686F77206D6F746FF1
:101A80007220312073657474696E677320286F72D9
:101A9000207768617465766572206D6F746F72204F
:101AA000796F752077616E7420312C322C332C3491
:101AB000290A2020247820202053686F772058207E
:101AC000617869732073657474696E677320286F19
:101AD0007220776861746576657220617869732019
:101AE000796F752077616E7420782C792C7A2C614F
:101AF0002C622C63290A2020246D20202053686F3B
:101B00007720616C6C206D6F746F722073657474D4
:101B1000696E67730A2020247120202053686F7734
:101B200020616C6C20617869732073657474696ED0
:101B300067730A2020246F20202053686F7720616C
:101B40006C6C206F66667365742073657474696E5F
:101B500067730A2020242420202053686F77206197
:101B60006C6C2073657474696E67730A2020246836
:101B700020202053686F7720746869732068656C33
:101B8000702073637265656E0A0A000A0A0A2323CD
:101B9000232054696E794720434F4E46494755529A
:101BA0004154494F4E2048656C70202323230A007E
:101BB0000A466F722064657461696C6564205469BB
:101BC0006E794720696E666F207365653A20687488
:101BD0007470733A2F2F6769746875622E636F6D26
:101BE0002F73796E746865746F732F54696E7947BB
:101BF0002F77696B692F0A466F7220746865206CB5
:101C00006174657374206669726D776172652073A3
:101C100065653A2068747470733A2F2F6769746829
:101C200075622E636F6D2F73796E746865746F7350
:101C30002F54696E79470A506C65617365206C6F2B
:101C40006720616E792069737375657320617420F4
:101C5000687474703A2F2F7777772E73796E746863
:101C600065746F732E636F6D2F666F72756D730A77
:101C7000486176652066756E0A000A4E6F74653A93
:101C80002054696E79472067656E6572617465736B
:101C9000206175746F6D617469632073746174750C
:101CA00073207265706F7274732062792064656648
:101CB00061756C740A546869732063616E20626593
:101CC0002064697361626C656420627920656E745A
:101CD0006572696E67202473763D300A536565200E
:101CE0007468652077696B692062656C6F77206620
:101CF0006F72206D6F72652064657461696C732EFC
:101D00000A00546865736520636F6D6D616E64735E
:101D100020617265206163746976652066726F6DFB
:101D20002074686520636F6D6D616E64206C696EF0
:101D3000653A0A205E7820202020202020202020C4
:101D400020202052657365742028636F6E74726F53
:101D50006C207829202D20736F667477617265205E
:101D600072657365740A20203F20202020202020E7
:101D70002020202020204D616368696E6520706FEF
:101D8000736974696F6E20616E642067636F646548
:101D9000206D6F64656C2073746174650A20202463
:101DA0002020202020202020202020202053686F69
:101DB0007720616E642073657420636F6E66696757
:101DC00075726174696F6E2073657474696E677380
:101DD0000A20202120202020202020202020202018
:101DE0002046656564686F6C64202D2073746F7085
:101DF000206D6F74696F6E20776974686F757420D9
:101E00006C6F73696E6720706F736974696F6E0AA7
:101E100020207E2020202020202020202020202064
:101E20004379636C65205374617274202D20726550
:101E300073746172742066726F6D20666565646884
:101E40006F6C640A20206820202020202020202081
:101E50002020202053686F7720746869732068659C
:101E60006C702073637265656E0A202024682020E0
:101E70002020202020202020202053686F772063FE
:101E80006F6E66696775726174696F6E2068656CE4
:101E9000702073637265656E0A2020247465737404
:101EA0002020202020202020204C6973742073657E
:101EB0006C662D74657374730A20202474657374C2
:101EC0003D4E2020202020202052756E2073656C0E
:101ED000662D74657374204E0A202024686F6D652A
:101EE0003D312020202020202052756E2061206866
:101EF0006F6D696E67206379636C650A20202464C6
:101F00006566613D312020202020202052657374B9
:101F10006F726520616C6C2073657474696E677391
:101F200020746F2022666163746F72792220646569
:101F30006661756C74730A000A0A0A23232320540D
:101F4000696E79472048656C70202323230A005B63
:101F500066735D2020666F6F746572207374796C90
:101F60006525313764205B303D6E65772C313D6FE0
:101F70006C645D0A005B6A735D20206A736F6E207B
:101F800073657269616C697A65207374796C652513
:101F90003964205B303D72656C617865642C313D3D
:101FA0007374726963745D0A005B6A765D20206AEF
:101FB000736F6E20766572626F736974792531353F
:101FC00064205B303D73696C656E742C313D666FC7
:101FD0006F7465722C323D6D657373616765732C28
:101FE000333D636F6E666967732C343D6C696E6553
:101FF0006E756D2C353D766572626F73655D0A0096
:102000005B656A5D2020656E61626C65206A736F36
:102010006E206D6F646525313364205B303D7465DF
:1020200078742C313D4A534F4E5D0A0039313331BB
:102030002C3127311E3113310831FC30F030E230C1
:10204000CB30BC30AF30A3308F3082306D30593060
:102050005630533044302F301A300B30FB2FE92FDD
:10206000D22FB52F982F7F2F692F582F462F392F1A
:10207000272F0D2F0A2F072F042F012FFE2EFB2EA7
:10208000F82EF52EF22EEF2EEC2EE92EE62EE32E74
:10209000E02EDD2EDA2ED72ED42ED12ECE2ECB2E24
:1020A000C82EC52EC22EBF2EBC2EB92EB62EB32ED4
:1020B000B02EAD2EAA2EA72EA42EA12E9E2E9B2E84
:1020C000982E952E922E8F2E8C2E892E862E832E34
:1020D000802E7D2E7A2E772E742E712E6E2E6B2EE4
:1020E000472E272E0D2EF32DD92DB52D982D802D71
:1020F0006A2D502D2C2D0F2DFD2CDD2CC62CAD2C3A
:102100008B2C722C542C382C202C0E2CF02BDB2BEF
:10211000D72BD32BCF2BCB2BC72BC32BBF2BBB2B1F
:10212000B72BB32BAF2BAB2BA72BA32B9F2B9B2B0F
:10213000812B672B542B382B262B0F2BEE2ADD2AD5
:10214000BD2A9D2A832A692A522A1F2AF229D229C6
:10215000B0298A296329472928290E29F428CF285C
:10216000A6288E28632837280128CC27BA27A82735
:10217000992786276D274B273927272715270327D8
:10218000F126DF26CD26BB26A9269726852673268F
:1021900061264F264B26472643263F263B263726D9
:1021A00033262F262B26272623261F261B261726D7
:1021B00013260F260B2607260326FF25EB25CD2504
:1021C000B125862561253C253825342530252C254B
:1021D0002825242520251C251825142510250C2507
:1021E00008250425F024D424B8249C2480246424C5
:1021F00048242C241024F423D823BC23A0239C237C
:102200009823942390238C238823842370234823AA
:102210002123FB22CE22A8227B22772273226F2247
:102220005C223B2226224A6F6767696E67206379CA
:10223000636C65206661696C65640050726F6265ED
:1022400020656E64706F696E7420697320737461A9
:102250007274696E6720706F696E740050726F627D
:1022600065206379636C65206661696C6564003222
:102270003439003234380032343700486F6D696EBB
:1022800067204572726F72202D20486F6D696E67EE
:10229000207377697463686573206D6973636F6E0B
:1022A0006669677572656400486F6D696E67204581
:1022B00072726F72202D204E656761746976652099
:1022C0006C61746368206261636B6F666600486F5F
:1022D0006D696E67204572726F72202D2054726195
:1022E00076656C206D696E2026206D6178206172A4
:1022F00065207468652073616D6500486F6D696E57
:1023000067204572726F72202D204C6174636820C3
:1023100076656C6F63697479206973207A65726F72
:1023200000486F6D696E67204572726F72202D20B4
:102330005365617263682076656C6F636974792098
:102340006973207A65726F00486F6D696E6720450A
:1023500072726F72202D20426164206F72206E6F46
:1023600020617869732073706563696669656400CC
:10237000486F6D696E67206379636C65206661697B
:102380006C65640032333900323338003233370041
:1023900032333600323335003233340032333300D7
:1023A000536F6674206C696D697420657863656528
:1023B000646564202D2043206D617800536F66743E
:1023C000206C696D69742065786365656465642057
:1023D0002D2043206D696E00536F6674206C696D0B
:1023E0006974206578636565646564202D204220EA
:1023F0006D617800536F6674206C696D6974206537
:1024000078636565646564202D2042206D696E00E7
:10241000536F6674206C696D6974206578636565B7
:10242000646564202D2041206D617800536F6674CF
:10243000206C696D697420657863656564656420E6
:102440002D2041206D696E00536F6674206C696D9C
:102450006974206578636565646564202D205A2061
:102460006D617800536F6674206C696D69742065C6
:1024700078636565646564202D205A206D696E005F
:10248000536F6674206C696D697420657863656547
:10249000646564202D2059206D617800536F667447
:1024A000206C696D69742065786365656465642076
:1024B0002D2059206D696E00536F6674206C696D14
:1024C0006974206578636565646564202D205820F3
:1024D0006D617800536F6674206C696D6974206556
:1024E00078636565646564202D2058206D696E00F1
:1024F000536F6674206C696D6974206578636565D7
:1025000064656400323139003231380032313700CD
:10251000323136003231350032313400323133005D
:102520003231320032313100323130003230390054
:102530003230380032303700323036005472617039
:10254000657A6F696420706C616E6E657220666179
:10255000696C656420746F20636F6E766572676561
:10256000004C696D697420737769746368206869C9
:1025700074202D2053687574646F776E206F6363C9
:102580007572726564004D616368696E6520697378
:1025900020616C61726D6564202D20436F6D6D61EB
:1025A0006E64206E6F742070726F63657373656400
:1025B000004D6F7665206C657373207468616E20C2
:1025C0006D696E696D756D2074696D65004D6F760E
:1025D00065206C657373207468616E206D696E6927
:1025E0006D756D206C656E6774680047656E657209
:1025F00069632054696E7947206572726F72003189
:102600003939003139380031393700313936003144
:102610003935003139340031393300313932003144
:102620003931003139300031383900313838003132
:102630003837003138360031383500313834003120
:1026400038330031383200313831003138300054FD
:1026500020776F726420697320696E76616C69649B
:10266000005420776F7264206973206D69737369F9
:102670006E67005220776F726420697320696E76EE
:10268000616C6964005220776F7264206973206DF9
:10269000697373696E67005120776F726420697384
:1026A00020696E76616C6964005120776F726420D6
:1026B0006973206D697373696E67004C20776F7260
:1026C0006420697320696E76616C6964004C2077C0
:1026D0006F7264206973206D697373696E67004857
:1026E00020776F726420697320696E76616C69640B
:1026F000004820776F7264206973206D6973736975
:102700006E67004520776F726420697320696E766A
:10271000616C6964004520776F7264206973206D75
:10272000697373696E67004420776F726420697300
:1027300020696E76616C6964004420776F72642052
:102740006973206D697373696E67005020776F72CB
:1027500064206973206E6F7420612076616C6964F7
:1027600020746F6F6C206E756D62657200502077FB
:102770006F7264206973206E6F7420616E20696EC1
:102780007465676572005020776F726420697320EA
:102790006E65676174697665005020776F7264209A
:1027A0006973207A65726F005020776F72642069B8
:1027B0007320696E76616C6964005020776F726473
:1027C000206973206D697373696E670041726320BD
:1027D00073706563696669636174696F6E206572A1
:1027E000726F72202D20656E64706F696E7420693F
:1027F00073207374617274696E6720706F696E7490
:10280000004172632073706563696669636174690E
:102810006F6E206572726F72202D2072616469750F
:102820007320617263206F7574206F6620746F6C03
:102830006572616E636500417263207370656369E0
:102840006669636174696F6E206572726F72202DA4
:10285000206D697373696E67206F6666736574288F
:1028600073290041726320737065636966696361EF
:1028700074696F6E206572726F72202D206D69739E
:1028800073696E67206178697328657329004172E6
:10289000632073706563696669636174696F6E2034
:1028A0006572726F72005370696E646C65206D752D
:1028B0007374206265207475726E696E6720666F2E
:1028C00072207468697320636F6D6D616E6400536C
:1028D00070696E646C65206D757374206265206F1D
:1028E000666620666F72207468697320636F6D6D11
:1028F000616E64005370696E646C65205320776F5D
:10290000726420697320696E76616C69640053702B
:10291000696E646C65205320776F72642069732040
:102920006D697373696E67005370696E646C6520BE
:102930007370656564206578636565646564206DA2
:102940006178696D756D005370696E646C65207394
:10295000706565642062656C6F77206D696E696D66
:10296000756D0050726F6772616D6D656420706F78
:10297000696E742073616D65206173206375727276
:10298000656E7420706F696E74004375747465723F
:1029900020636F6D70656E736174696F6E20636123
:1029A0006E6E6F7420626520656E61626C65640096
:1029B0005265717565737465642076656C6F6369C3
:1029C00074792065786365656473206C696D6974DA
:1029D00073004730206F72204731206D757374206B
:1029E00062652061637469766520666F7220473581
:1029F0003300526F7461727920617865732063616E
:102A00006E6E6F74206265207573656420776974DB
:102A100068207468697320636F6D6D616E6400492E
:102A20006E76657273652074696D65206D6F64657F
:102A30002063616E6E6F742062652075736564201B
:102A400077697468207468697320636F6D6D616E57
:102A500064004665656472617465206E6F742073EE
:102A600070656369666965640053656C6563746568
:102A70006420706C616E6520697320696E76616C8C
:102A800069640053656C656374656420706C616E85
:102A900065206973206D697373696E670041786999
:102AA000732074617267657420706F736974696FE5
:102AB0006E20697320696E76616C69640041786983
:102AC000732074617267657420706F736974696FC5
:102AD0006E206973206D697373696E670041786950
:102AE000732069732064697361626C656400417866
:102AF000697320697320696E76616C696420666F02
:102B000072207468697320636F6D6D616E6400413B
:102B10007869732063616E6E6F74206265207072D5
:102B20006573656E74004178697320776F726420F5
:102B30006D697373696E670047636F6465206D6FBD
:102B400064616C2067726F75702076696F6C617458
:102B5000696F6E004D20636F646520756E737570CC
:102B6000706F727465640047636F646520636F6D96
:102B70006D616E6420756E737570706F72746564CC
:102B80000047656E657269632047636F64652069FD
:102B90006E707574206572726F7200313239003157
:102BA00032380031323700313236003132350031BF
:102BB00032340031323300313232003132310031BF
:102BC00032300031313900313138003131370031A4
:102BD00031360031313500313134004A534F4E2007
:102BE000737472696E6720746F6F206C6F6E67000C
:102BF0004A534F4E20696E7075742068617320745B
:102C00006F6F206D616E79207061697273004A5335
:102C10004F4E2073796E746178206572726F720006
:102C2000496E7075742076616C75652072616E678F
:102C300065206572726F7200496E707574206578D8
:102C40006365656473206D6178696D756D2076616B
:102C50006C756500496E707574206C6573732074B3
:102C600068616E206D696E696D756D2076616C7539
:102C70006500496E707574206578636565647320BE
:102C80006D6178206C656E67746800436F6D6D616F
:102C90006E64206E6F742061636365707465642078
:102CA000617420746869732074696D650050617285
:102CB000616D657465722063616E6E6F742062650C
:102CC000207265616400506172616D657465722087
:102CD000697320726561642D6F6E6C7900556E7337
:102CE0007570706F72746564206E756D62657220A8
:102CF0006F72204A534F4E207479706500426164B0
:102D0000206E756D62657220666F726D6174004928
:102D10006E76616C6964206F72206D616C666F7293
:102D20006D656420636F6D6D616E6400556E7265D4
:102D3000636F676E697A656420636F6D6D616E6441
:102D4000206F7220636F6E666967206E616D65002B
:102D500047656E6572696320617373657274696F2C
:102D60006E206661696C757265004D656D6F727974
:102D7000206661756C7420646574656374656400B5
:102D8000537461636B206F766572666C6F77206435
:102D90006574656374656400436F6E74726F6C6C08
:102DA000657220617373657274696F6E2066616904
:102DB0006C7572650043616E6F6E6963616C206D46
:102DC000616368696E6520617373657274696F6EA3
:102DD000206661696C75726500506C616E6E65721B
:102DE00020617373657274696F6E206661696C75BA
:102DF00072650053746570706572206173736572DB
:102E000074696F6E206661696C75726500456E63EA
:102E10006F64657220617373657274696F6E20668A
:102E200061696C75726500494F207375622D737905
:102E30007374656D20617373657274696F6E20665B
:102E400061696C75726500436F6E666967207375A2
:102E5000622D73797374656D206173736572746923
:102E60006F6E206661696C7572650038390038389C
:102E70000038370038360038350038340038330031
:102E800038320038310038300037390037380037F1
:102E900037003736003735003734003733003732E4
:102EA0000037310037300036390036380036370009
:102EB00036360036350036340036330036320036CA
:102EC00031003630003539003538003537003536B9
:102ED00000353500353400353300353200353100EA
:102EE000353000343900343800343700343600349B
:102EF000350034340034330034320034310034309F
:102F00000033390033380033370033360042616410
:102F100020737461747573207265706F727420739E
:102F2000657474696E670050657273697374656E59
:102F30006365206572726F7200466C6F6174206900
:102F400073204E414E00466C6F6174206973206996
:102F50006E66696E697465004D6F76652074696D83
:102F600065206973204E414E004D6F76652074696F
:102F70006D6520697320696E66696E6974650047C6
:102F8000656E6572696320657863657074696F6EDC
:102F9000207265706F7274004661696C656420749C
:102FA0006F2067657420706C616E6E65722062754B
:102FB000666665720053797374656D20616C617229
:102FC0006D202D207368757474696E6720646F7747
:102FD0006E00496E697469616C697A6174696F6EBB
:102FE000206661696C75726500526561642D6F6E53
:102FF0006C79206164647265737300496E76616CEC
:10300000696420416464726573730044697669641D
:1030100065206279207A65726F00466C6F61746911
:103020006E6720706F696E74206572726F720049EE
:103030006E7465726E616C2072616E676520657278
:10304000726F7200496E7465726E616C2065727287
:103050006F720031390031380046756E6374696FE4
:103060006E206973207374756262656400456E74C6
:103070006572696E6720626F6F74206C6F61646542
:103080007200496E697469616C697A696E670042A1
:1030900075666665722066756C6C202D206661749D
:1030A000616C004275666665722066756C6C0042E4
:1030B000756666657220656D707479004E6F207359
:1030C00075636820646576696365004D6178206684
:1030D000696C652073697A652065786365656465E8
:1030E000640046696C65206E6F74206F70656E00B9
:1030F000456E64206F662066696C6500456E6420CD
:103100006F66206C696E6500486172642072657339
:103110006574005465726D696E6174656400436F17
:103120006D706C657465004E6F6F7000456167610E
:10313000696E004572726F72004F4B0053595354C1
:10314000454D205245414459004C6F6164696E679A
:1031500020636F6E666967732066726F6D204545E8
:1031600050524F4D00496E697469616C697A696E9D
:103170006720636F6E6669677320746F20536861A0
:1031800070656F6B6F32203530306D6D2070726FEF
:1031900066696C65007B226572223A7B2266622238
:1031A0003A25302E32662C227374223A25642C2262
:1031B0006D7367223A222573227D7D0A007B65723A
:1031C0003A7B66623A25302E32662C73743A256457
:1031D0002C6D73673A222573227D7D0A005B717620
:1031E0005D20207175657565207265706F72742041
:1031F000766572626F73697479253764205B303D40
:103200006F66662C313D73696E676C652C323D7458
:103210007269706C655D0A00716F3A25640A00710D
:10322000693A25640A0071723A25640A005B737674
:103230005D2020737461747573207265706F727491
:1032400020766572626F73697479253664205B300D
:103250003D6F66662C313D66696C74657265642CE1
:10326000323D766572626F73655D0A005B73695DFE
:10327000202073746174757320696E746572766151
:103280006C2531342E3066206D730A004D6F746FDB
:103290007220256320706F77657220656E61626CA5
:1032A00065642073746174653A25322E30660A00B5
:1032B0005B257325735D206D2573206D6F746F72B0
:1032C00020706F776572206C6576656C2531332EC2
:1032D0003366205B302E3030303D6D696E696D7520
:1032E0006D2C20312E3030303D6D6178696D756DFB
:1032F0005D0A005B257325735D206D257320706F5B
:10330000776572206D616E6167656D656E742531DC
:103310003064205B303D64697361626C65642C319C
:103320003D616C77617973206F6E2C323D696E2040
:103330006379636C652C333D7768656E206D6F76BD
:10334000696E675D0A005B257325735D206D2573CB
:1033500020706F6C617269747925313864205B303C
:103360003D6E6F726D616C2C313D72657665727366
:10337000655D0A005B257325735D206D2573206DE7
:103380006963726F737465707325313664205B31C5
:103390002C322C342C385D0A005B257325735D209C
:1033A0006D25732074726176656C20706572207271
:1033B00065766F6C7574696F6E2531302E346625B5
:1033C000730A005B257325735D206D25732073746C
:1033D000657020616E676C652532302E336625730B
:1033E0000A005B257325735D206D2573206D617068
:1033F00020746F206178697325313564205B303D1E
:10340000582C313D592C323D5A2E2E2E5D0A005B30
:103410006D745D20206D6F746F722069646C65201F
:1034200074696D656F75742531342E32662053656D
:10343000630A006D6F746F72732064652D656E652D
:103440007267697A65640A006D6F746F72732065C4
:103450006E657267697A65640A0069346534603440
:103460002064656700206D6D0020696E005B6964F3
:103470005D202054696E7947204944253330730A12
:10348000005B68765D2020686172647761726520F8
:1034900076657273696F6E2531362E32660A005B6F
:1034A00068705D2020686172647761726520706C5D
:1034B0006174666F726D2531352E32660A005B6667
:1034C000765D20206669726D77617265207665721F
:1034D00073696F6E2531362E32660A005B66625D57
:1034E00020206669726D77617265206275696C640F
:1034F0002531382E32660A00546573742023256402
:10350000206E6F7420666F756E640A004E36204719
:10351000393220583735205930205A300A4E37205A
:10352000463530302E300A4E3820473159302E3251
:1035300039315A2D322E3139380A4E392058373424
:103540002E37363759302E3035385A2D322E333506
:10355000350A4E3130205837342E373039592D3016
:103560002E3030305A2D322E3337310A4E31312041
:103570005837342E3532395A2D322E3236340A4EDF
:103580003132205837342E36333459302E313035DD
:103590005A2D322E3331390A4E3133205837342EDA
:1035A00038343359302E3331345A2D322E313833AA
:1035B0000A4E3134205837352E30303059302E34C1
:1035C00037315A2D322E3132360A4E3135205930AC
:1035D0002E3635305A2D322E3130300A4E313620CB
:1035E0005837342E37383359302E3433345A2D323D
:1035F0002E3133310A4E3137205837342E35363696
:1036000059302E3231375A2D322E3234340A4E315F
:1036100038205837342E333530592D302E30303055
:103620005A2D322E3138320A4E3139205837342E45
:103630003137305A2D322E3134340A4E3230205840
:1036400037342E34323959302E3235395A2D322E04
:103650003136350A4E3231205837342E353333590E
:10366000302E3336335A2D322E3139310A4E323222
:10367000205837342E36383959302E3531395A2DB5
:10368000322E3131340A4E3233205837342E38340A
:103690003459302E3637345A2D322E3039360A4EC0
:1036A0003234205837352E30303059302E383330C0
:1036B0005A2D322E3131340A4E32352059312E30C6
:1036C00031305A2D322E3134340A4E3236205837AA
:1036D000342E37383759302E3739375A2D322E306D
:1036E00039380A4E3237205837342E36323859306E
:1036F0002E3633385A2D322E3130380A4E32382099
:103700005837342E34363959302E3437385A2D3212
:103710002E3135370A4E3239205837342E3330396E
:1037200059302E3331395A2D322E3131300A4E3341
:1037300030205837342E30343459302E3035335A07
:103740002D322E3130380A4E3331205837332E394E
:10375000393059302E3030305A2D322E3037370A2A
:103760004E3332205837332E3831315A2D312E39DD
:1037700034370A4E3333205837332E3937335930E4
:103780002E3136325A2D322E3037390A4E3334200C
:103790005837342E32343359302E3433325A2D3296
:1037A0002E3038340A4E3335205837342E343539DC
:1037B00059302E3634395A2D322E3135370A4E33A0
:1037C00036205837342E36373659302E3836355A5B
:1037D0002D322E3130390A4E3337205837342E38B7
:1037E000333859312E3032375A2D322E3131310A99
:1037F0004E3338205837352E30303059312E31384D
:10380000395A2D322E3136300A4E33392059312E65
:103810003336395A2D322E3139340A4E343020584D
:1038200037342E38343259312E3231315A2D322E2E
:103830003133340A4E3431205837342E3638345927
:10384000312E3035335A2D322E3132300A4E343249
:10385000205837342E34323159302E3739305A2DE2
:10386000322E3137360A4E3433205837342E333126
:103870003659302E3638345A2D322E3133370A4EDF
:103880003434205837342E31353859302E353236CD
:103890005A2D322E3037370A4E3435205837332ED2
:1038A00039343759302E3331365A2D322E3036379F
:1038B0000A4E3436205837332E38393459302E32A8
:1038C00036335A2D322E3034360A4E34372058379C
:1038D000332E37333759302E3130355A2D312E397A
:1038E00031380A4E3438205837332E363331593078
:1038F0002E3030305A2D312E3837320A4E3439209E
:103900005837332E3435325A2D312E3831350A4E50
:103910003530205837332E36363559302E32313443
:103920005A2D312E3931340A4E3531205837332E45
:1039300038323559302E3337345A2D322E30323812
:103940000A4E3532205837332E38373959302E3415
:1039500032375A2D322E3037360A4E35332058370B
:10396000342E30393259302E3634315A2D322E30F1
:1039700039340A4E3534205837342E3330365930E6
:103980002E3835345A2D322E3139320A4E35352003
:103990005837342E35313959312E3036385A2D3288
:1039A0002E3134310A4E3536205837342E373333E2
:1039B00059312E3238315A2D322E3134330A4E35A8
:1039C00037205837342E38343059312E3338385A5E
:1039D0002D322E3137340A4E3538205837342E38B0
:1039E000393359312E3434325A2D322E3136390A88
:1039F0004E3539205837352E30303059312E353448
:103A0000385A2D322E3132310A4E36302059312E6D
:103A10003732385A2D322E3037360A4E363120584A
:103A200037342E38343359312E3537315A2D322E22
:103A30003133300A4E3632205837342E3733385926
:103A4000312E3436365A2D322E3139350A4E363330
:103A5000205837342E34373659312E3230345A2DDF
:103A6000322E3134370A4E3634205837342E323124
:103A70003559302E3934335A2D322E3230320A4EE7
:103A80003635205837332E39303059302E363238CB
:103A90005A2D322E3130310A4E3636205837332ED9
:103AA00038343859302E3537365A2D322E30393693
:103AB0000A4E3637205837332E35383659302E33A4
:103AC00031345A2D312E3931330A4E363820583799
:103AD000332E33373759302E3130355A2D312E3879
:103AE00030380A4E3639205837332E323732593073
:103AF0002E3030305A2D312E3738370A4E3730209D
:103B00005837332E3138325A2D312E3738370A4E46
:103B10003731205837332E3039325A2D312E373540
:103B2000300A4E3732205837332E34313059302E48
:103B30003331385A2D312E3836380A4E3733205823
:103B400037332E37383159302E3638395A2D322EF8
:103B50003038360A4E3734205837342E30393959F8
:103B6000312E3030375A2D322E3232340A4E37351C
:103B7000205837342E32303559312E3131335A2DC9
:103B8000322E3231310A4E3736205837342E333602
:103B90003459312E3237325A2D322E3137360A4EC1
:103BA0003737205837342E36323959312E3533379E
:103BB0005A2D322E3139310A4E3738205837342EAB
:103BC00036383259312E3539305A2D322E31373779
:103BD0000A4E3739205837342E38393459312E3877
:103BE00030325A2D322E3036360A4E383020583781
:103BF000352E30303059312E3930385A2D322E3062
:103C000034360A4E38312059322E3038375A2D3258
:103C10002E3035310A4E3832205837342E38333969
:103C200059312E3932375A2D322E3036320A4E382B
:103C300033205837342E36373959312E3736365AE5
:103C40002D322E3133360A4E3834205837342E3642
:103C5000323559312E3731335A2D322E3137300A21
:103C60004E3835205837342E35373259312E3635C7
:103C7000395A2D322E3138300A4E383620583734E2
:103C80002E33353859312E3434355A2D322E3135C4
:103C9000370A4E3837205837342E31393759312EBC
:103CA0003238345A2D322E3139350A4E38382058B0
:103CB00037342E30393059312E3137375A2D322E94
:103CC0003234350A4E3839205837332E3938335983
:103CD000312E3037305A2D322E3232350A4E3930AD
:103CE000205837332E38323359302E3931305A2D4F
:103CF000322E3133380A4E3931205837332E33398A
:103D00003459302E3438325A2D312E3931370A4E4B
:103D10003932205837332E31383059302E32363838
:103D20005A2D312E3832350A4E3933205837322E3B
:103D300039363659302E3035345A2D312E3731310F
:103D40000A4E3934205837322E393133592D302E1E
:103D50003030305A2D312E3639330A4E393520580D
:103D600037322E3733335A2D312E3634360A4E3908
:103D700036205837322E39393759302E3236345AA8
:103D80002D312E3735330A4E3937205837332E32FE
:103D9000363059302E3532375A2D312E3930320ADD
:103DA0004E3938205837332E36323959302E38397B
:103DB000365A2D322E3037370A4E3939205837339C
:103DC0002E38343059312E3130375A2D322E32328E
:103DD000340A4E313030205837332E383933593188
:103DE0002E3136305A2D322E3234350A4E313031A2
:103DF0002058373559305A300A004E312054314D51
:103E0000360A4E32204731370A4E33204732310AC4
:103E10004E382046313830300A4E392047310A4E6C
:103E20003130302047393220582D32352E31373756
:103E3000592D33342E303732205A2D312E30303038
:103E4000202854454D502C2052454D4F5645204C6E
:103E500041544552290A4E33343320582D32352EE1
:103E6000353935592D33342E3334390A4E33343401
:103E700020582D32352E373031592D33342E3433EE
:103E8000360A4E33343520582D32352E37393159D4
:103E90002D33342E3532300A4E33343620582D32FD
:103EA000352E383634592D33342E3630310A4E33D0
:103EB000343720582D32352E393230592D33342EA7
:103EC0003637390A4E33343820582D32352E3936AC
:103ED00030592D33342E3735340A4E333439205887
:103EE0002D32352E393832592D33342E3832360AA8
:103EF0004E33353020582D32352E393837592D3341
:103F0000342E3839350A4E33353120582D32352E7E
:103F1000393736592D33342E3936310A4E3335324E
:103F200020582D32352E393438592D33352E303234
:103F3000330A4E33353320582D32352E393033592C
:103F40002D33352E3038320A4E33353420582D3249
:103F5000352E383431592D33352E3133380A4E331E
:103F6000353520582D32352E373633592D33352EF1
:103F70003139300A4E33353620582D32352E36360B
:103F800039592D33352E3233390A4E3335372058CF
:103F90002D32352E353539592D33352E3238340AF8
:103FA0004E33353820582D32352E343333592D3396
:103FB000352E3332350A4E33353920582D32352ED1
:103FC000323931592D33352E3336330A4E333630AC
:103FD00020582D32352E313334592D33352E333987
:103FE000370A4E33363120582D32342E3936335974
:103FF0002D33352E3432380A4E33363220582D3296
:10400000342E373737592D33352E3435350A4E3364
:10401000363320582D32342E353737592D33352E3F
:104020003437370A4E33363420582D32342E333657
:1040300037592D33352E3439360A4E33363520581C
:104040002D32342E313434592D33352E3531310A59
:104050004E33363620582D32332E393039592D33E0
:10406000352E3532320A4E33363720582D32332E24
:10407000363631592D33352E3532390A4E333638EE
:1040800020582D32332E343033592D33352E3533DD
:10409000320A4E33363920582D32332E31333359CC
:1040A0002D33352E3533320A4E33373020582D32EA
:1040B000322E383533592D33352E3532370A2F4EBF
:1040C0003235313820473058302E333237592D337E
:1040D000332E3532315A2D312E3030300A4E3235B2
:1040E0003139204D3330004E31204732300A4E35C1
:1040F00020473430204731370A4E313020543120A8
:104100004D30360A284E313520473930204730208F
:104110005830205930205A30290A4E323020533539
:10412000303030204D3033200A4E32352058302E7A
:104130003036342059302E333236205A300A4E343D
:104140003020473031204631362E300A4E3530206F
:1041500058302E3036342059302E3332360A4E3510
:10416000352058302E3036302059302E3239330A2F
:104170004E36302058302E3037372059302E3236D8
:10418000370A4E36352058302E3131312059302EF5
:104190003235370A4E37302058302E3134392059D5
:1041A000302E3235320A4E37352058302E313838DD
:1041B0002059302E3235350A4E38302058302E32C4
:1041C00032372059302E3236380A4E3835205830A2
:1041D0002E3235372059302E3237310A4E393020C1
:1041E00058302E3333352059302E3236350A4E3979
:1041F000352058302E3431322059302E3237310AA2
:104200004E3130302058302E3437342059302E3251
:1042100038370A4E3130352058302E343931205954
:10422000302E3238390A4E3131302058302E353167
:10423000372059302E3237330A4E3131352058303D
:104240002E3534342059302E3236330A4E31323046
:104250002058302E3538302059302E3236310A4E23
:104260003132352058302E3539352059302E3236FE
:10427000330A4E3133302058302E36323120593007
:104280002E3237340A4E3133352058302E363539F8
:104290002059302E3330360A4E3134302058302EEB
:1042A0003637332059302E3333350A4E31343520EA
:1042B00058302E3637392059302E3336310A4E31A8
:1042C00035302058302E3637382059302E33383993
:1042D0000A4E3135352058302E3637302059302EA1
:1042E0003432300A4E3136302058302E36373020B6
:1042F00059302E3434360A4E3136352058302E3669
:1043000038302059302E3437340A4E313730205867
:10431000302E3730342059302E3439370A4E313769
:10432000352058302E3733322059302E3531350A6A
:104330004E3138302058302E3739342059302E3510
:1043400033350A4E3138352058302E38373220591F
:10435000302E3536370A4E3139302058302E393527
:10436000302059302E3630340A4E3139352058310C
:104370002E3033312059302E3634370A4E32303019
:104380002058312E3134392059302E3732320A4EEE
:104390003230352058312E3330382059302E3835D0
:1043A000340A4E3231302058312E343330205930D7
:1043B0002E3938340A4E3231352058312E343437C4
:1043C0002059302E3938360A4E3232302058312EAC
:1043D0003632382059302E3832320A4E32323520B9
:1043E00058312E3733322059302E3731340A4E327D
:1043F00033302058322E3030392059302E33383176
:104400000A4E3233352058322E3131362059302E73
:104410003236360A4E3234302058322E323238207C
:1044200059302E3135370A4E3234352058322E323B
:1044300038302059302E3132330A4E323530205840
:10444000322E3333322059302E3039340A4E323541
:10445000352058322E3432332059302E3037300A3E
:104460004E3236302058322E3438392059302E30E2
:1044700036350A4E3236352058322E3535372059EA
:10448000302E3036360A4E3237302058322E363201
:10449000372059302E3038340A4E323735205832D2
:1044A0002E3639332059302E3130390A4E323830D9
:1044B0002058322E3733302059302E3133330A4EC4
:1044C0003238352058322E3830352059302E313997
:1044D000300A4E3239302058322E38323920593095
:1044E0002E3231360A4E3239352058322E38383095
:1044F0002059302E3239310A4E3330302058322E86
:104500003838342059302E3330300A4E333035208D
:1045100058322E3839382059302E3333320A4E3340
:1045200031302058322E3930352059302E3336373D
:104530000A4E3331352058322E3931302059302E41
:104540003430370A4E3332302058322E393038204A
:1045500059302E3434360A4E3332352058322E3903
:1045600030312059302E3439350A4E33333020580B
:10457000322E3839372059302E3439350A4E3333FC
:10458000352058322E3839302059302E3532340A01
:104590004E3334302058322E3834322059302E36B3
:1045A00030340A4E3334352058322E3831342059C5
:1045B000302E3636350A4E3335302058322E3739C4
:1045C000342059302E3735300A4E333535205832A5
:1045D0002E3739312059302E3833380A4E333630A1
:1045E0002058322E3831392059302E3937360A4E7C
:1045F0003336352058322E3833372059312E303467
:10460000340A4E3337302058322E38363220593162
:104610002E3131320A4E3337352058322E38373763
:104620002059312E3134350A4E3338302058322E4D
:104630003931322059312E3231370A4E3338352054
:1046400058322E3931372059312E3232360A4E3314
:1046500039302058322E3935312059312E32383107
:104660000A4E3339352058322E3937302059312E01
:104670003239350A4E3430302058322E393936200E
:1046800059312E3239350A4E3430352058332E30D8
:1046900031332059312E3237350A4E3431302058DB
:1046A000332E3032342059312E3235340A4E3431E3
:1046B000352058332E3037302059312E3135310ADC
:1046C0004E3432302058332E3037372059312E3186
:1046D00033340A4E3432352058332E313235205996
:1046E000312E3033390A4E3433302058332E3133A3
:1046F000382059312E3031390A4E34333520583371
:104700002E3230352059302E3930380A4E3434307C
:104710002058332E3238322059302E3739370A4E4E
:104720003434352058332E3336312059302E363933
:10473000310A4E3435302058332E34323620593039
:104740002E3539320A4E3435352058332E3435362D
:104750002059302E3534330A4E3436302058332E1B
:104760003437392059302E3439330A4E3436352017
:1047700058332E3439342059302E3437320A4E34DF
:1047800037302058332E3530352059302E343436DA
:104790000A4E3437352058332E3531382059302ED3
:1047A0003431370A4E3438302058332E35333020E8
:1047B00059302E3339310A4E3438352058332E359E
:1047C00036342059302E3330300A4E3439302058A8
:1047D000332E3537372059302E3235330A4E34399F
:1047E000352058332E3536382059302E3231320AA2
:1047F0004E3530302058332E3534342059302E3158
:1048000037360A4E3530352058332E35343120595D
:10481000302E3134360A4E3531302058332E35356E
:10482000332059302E3131390A4E35313520583345
:104830002E3537362059302E3130360A4E3532304B
:104840002058332E3539372059302E3130320A4E28
:104850003532352058332E3631382059302E31300C
:10486000390A4E3533302058332E363339205930FB
:104870002E3132390A4E3533352058332E36353005
:104880002059302E3135390A4E3534302058332EE8
:104890003636332059302E3137380A4E35343520EC
:1048A00058332E3637382059302E3139320A4E35AA
:1048B00035302058332E3639392059302E3139379A
:1048C0000A4E3535352058332E3732332059302EA5
:1048D0003139360A4E3536302058332E37363420AB
:1048E00059302E3137390A4E3536352058332E3867
:1048F00030352059302E3136350A4E353730205874
:10490000332E3838342059302E3135390A4E353768
:10491000352058332E3934392059302E3136350A66
:104920004E3538302058332E3936362059302E3116
:1049300037350A4E3538352058332E393738205917
:10494000302E3139340A4E3539302058332E39372C
:10495000382059302E3232330A4E3539352058330B
:104960002E3936302059302E3234350A4E3630301A
:104970002058332E3833342059302E3331310A4EFB
:104980003630352058332E3736322059302E3334D6
:10499000350A4E3631302058332E373236205930D2
:1049A0002E3338390A4E3631352058332E373033CE
:1049B0002059302E3435380A4E3632302058332EB6
:1049C0003638322059302E3533300A4E36323520C3
:1049D00058332E3637392059302E3533340A4E3677
:1049E00033302058332E3632362059302E36383177
:1049F0000A4E3633352058332E3536382059302E6E
:104A00003832380A4E3634302058332E343434207D
:104A100059312E3038300A4E3634352058332E3442
:104A200030352059312E3136370A4E363530205840
:104A3000332E3430342059312E3136370A4E363544
:104A4000352058332E3338372059312E3230380A3A
:104A50004E3636302058332E3338342059312E32EA
:104A600030380A4E3636352058332E3336352059F5
:104A7000312E3236350A4E3637302058332E333504
:104A8000352059312E3238350A4E363735205833D5
:104A90002E3334382059312E3330380A4E363830E0
:104AA0002058332E3333332059312E3335300A4ECC
:104AB0003638352058332E3332312059312E3339A0
:104AC000310A4E3639302058332E333131205931A6
:104AD0002E3432380A4E3639352058332E33333996
:104AE0002059312E3432330A4E3730302058332E8D
:104AF0003434302059312E3430360A4E3730352098
:104B000058332E3531302059312E3430380A4E3753
:104B100031302058332E3538352059312E3432314A
:104B20000A4E3731352058332E3631312059312E47
:104B30003433390A4E3732302058332E3631312053
:104B400059312E3434310A4E3732352058332E360F
:104B500031352059312E3434310A4E373330205814
:104B6000332E3633362059312E3438380A4E373307
:104B7000352058332E3633342059312E3531370A0B
:104B80004E3734302058332E3632322059312E35BC
:104B900034330A4E3734352058332E3630352059C9
:104BA000312E3536330A4E3735302058332E3537CF
:104BB000362059312E3537350A4E373535205833A2
:104BC0002E3534342059312E3538310A4E373630AF
:104BD0002058332E3437392059312E3539320A4E88
:104BE0003736352058332E3435312059312E35396A
:104BF000380A4E3737302058332E33383720593162
:104C00002E3632360A4E3737352058332E33393068
:104C10002059312E3633360A4E3738302058332E4D
:104C20003533322059312E3630320A4E373835205E
:104C300058332E3630312059312E3539370A4E3718
:104C400039302058332E3636382059312E35393800
:104C50000A4E3739352058332E3738322059312E05
:104C60003631320A4E3830302058332E373934201E
:104C700059312E3631380A4E3830352058332E38D7
:104C800036382059312E3633360A4E3831302058D6
:104C9000332E3931382059312E3635350A4E3831D8
:104CA000352058332E3934352059312E3636370ACF
:104CB0004E3832302058332E3936342059312E3682
:104CC00038350A4E3832352058332E393637205988
:104CD000312E3638350A4E3833302058332E393796
:104CE000342059312E3639390A4E3833352058336D
:104CF0002E3938342059312E3732350A4E38343077
:104D00002058332E3938342059312E3735380A4E51
:104D10003834352058332E3937302059312E373931
:104D2000300A4E3835302058332E39343520593139
:104D30002E3831370A4E3835352058332E39313830
:104D40002059312E3832360A4E3836302058332E1C
:104D50003839312059312E3832370A4E383635201D
:104D600058332E3834322059312E3830390A4E38E3
:104D700037302058332E3739382059312E373834D0
:104D80000A4E3837352058332E3734362059312ED5
:104D90003737320A4E3838302058332E36393820DB
:104DA00059312E3736340A4E3838352058332E369E
:104DB00033352059312E3736360A4E38393020589F
:104DC000332E3535332059312E3738350A4E3839A0
:104DD000352058332E3437382059312E3832300AA6
:104DE0004E3930302058332E3430392059312E3856
:104DF00036340A4E3930352058332E333435205965
:104E0000312E3931380A4E3931302058332E32366E
:104E1000342059322E3032330A4E3931352058334E
:104E20002E3234382059322E3035310A4E39323054
:104E30002058332E3234302059322E3038310A4E39
:104E40003932352058332E3331362059322E30380E
:104E5000360A4E3933302058332E33393020593208
:104E60002E3130340A4E3933352058332E34313414
:104E70002059322E3132310A4E3934302058332EF7
:104E80003433312059322E3135330A4E39343520FE
:104E900058332E3433332059322E3138300A4E39BC
:104EA00035302058332E3432372059322E323035B7
:104EB0000A4E3935352058332E3431332059322EAD
:104EC0003232340A4E3936302058332E33393220BC
:104ED00059322E3234320A4E3936352058332E3379
:104EE00033352059322E3234340A4E393730205877
:104EF000332E3237382059322E3233360A4E393774
:104F0000352058332E3235362059322E3234320A7B
:104F10004E3938302058332E3233392059322E3220
:104F200035310A4E3938352058332E323131205937
:104F3000322E3238300A4E3939302058332E31373C
:104F4000342059322E3335360A4E3939352058330C
:104F50002E3135392059322E3339370A4E3130301F
:104F6000302058332E3135302059322E3433380A20
:104F70004E313030352058332E3134302059322ED6
:104F80003438310A4E313031302058332E313332FB
:104F90002059322E3531300A4E31303135205833D8
:104FA0002E3131382059322E3534330A4E313032D9
:104FB000302058332E3039392059322E3537360AC1
:104FC0004E313032352058332E3035312059322E83
:104FD0003633310A4E313033302058332E303033AF
:104FE0002059322E3636360A4E313033352058327B
:104FF0002E3935372059322E3638350A4E31303475
:10500000302058322E3930372059322E3639390A6D
:105010004E313034352058322E3836302059322E29
:105020003731310A4E313035302058322E3831394F
:105030002059322E3732370A4E313035352058322A
:105040002E3736382059322E3734350A4E31303625
:10505000302058322E3731362059322E3735370A24
:105060004E313036352058322E3637352059322ED3
:105070003735370A4E313037302058322E353739F0
:105080002059322E3733310A4E31303735205832DD
:105090002E3537302059322E3732330A4E313038E0
:1050A000302058322E3535392059322E3732300AD9
:1050B0004E313038352058322E3533302059322E8B
:1050C0003730310A4E313039302058322E353031B8
:1050D0002059322E3639330A4E3130393520583284
:1050E0002E3437312059322E3638330A4E31313092
:1050F000302058322E3434332059322E3636380A86
:105100004E313130352058322E3339362059322E37
:105110003633340A4E313131302058322E33353463
:105120002059322E3539310A4E313131352058323D
:105130002E3335322059322E3539310A4E31313243
:10514000302058322E3332352059322E3534330A3E
:105150004E313132352058322E3331352059322EEE
:105160003532310A4E313133302058322E33303718
:105170002059322E3439380A4E31313335205832E5
:105180002E3239362059322E3436340A4E313134EB
:10519000302058322E3239332059322E3432370AE9
:1051A0004E313134352058322E3239352059322E95
:1051B0003336360A4E313135302058322E333231C3
:1051C0002059322E3330330A4E31313535205832A2
:1051D0002E3335382059322E3234370A4E3131369B
:1051E000302058322E3431392059322E3230330AA1
:1051F0004E313136352058322E3431392059322E45
:105200003137390A4E313137302058322E3430356B
:105210002059322E3135380A4E3131373520583247
:105220002E3336322059322E3132330A4E31313854
:10523000302058322E3335342059322E3130340A52
:105240004E313138352058322E3335342059322EF4
:105250003039310A4E313139302058322E3338301E
:105260002059322E3036350A4E31313935205832F8
:105270002E3431302059322E3035310A4E31323011
:10528000302058322E3431302059322E3034370A03
:105290004E313230352058322E3430352059322EAE
:1052A0003032380A4E313231302058322E343038D4
:1052B0002059322E3031300A4E31323135205832B9
:1052C0002E3431362059312E3939350A4E313232A9
:1052D000302058322E3433332059312E3938320AA7
:1052E0004E313232352058322E3433382059312E57
:1052F0003936330A4E313233302058322E34343777
:105300002059312E3934380A4E3132333520583253
:105310002E3436312059312E3933380A4E31323459
:10532000302058322E3438302059312E3933310A5A
:105330004E313234352058322E3437382059312E00
:105340003839390A4E313235302058322E34383718
:105350002059312E3837350A4E3132353520583202
:105360002E3530342059312E3835340A4E3132360C
:10537000302058322E3532372059312E3834380A01
:105380004E313236352058322E3534392059312EAF
:105390003834390A4E313237302058322E353737CB
:1053A0002059312E3836310A4E31323735205832B5
:1053B0002E3630342059312E3836360A4E313238B6
:1053C000302058322E3633312059312E3835340AB8
:1053D0004E313238352058322E3634302059312E65
:1053E0003832370A4E313239302058322E36343086
:1053F0002059312E3739320A4E3132393520583260
:105400002E3632392059312E3735390A4E31333064
:10541000302058322E3631322059312E3732370A69
:105420004E313330352058322E3537362059312E13
:105430003639340A4E313331302058322E35333636
:105440002059312E3636320A4E313331352058321A
:105450002E3437302059312E3631360A4E31333220
:10546000302058322E3334352059312E3535310A1B
:105470004E313332352058322E3330372059312EC9
:105480003532310A4E313333302058322E323630F5
:105490002059312E3438320A4E31333335205832C8
:1054A0002E3234332059312E3437370A4E313334CB
:1054B000302058322E3232382059312E3436390AC3
:1054C0004E313334352058322E3232322059312E7B
:1054D0003434380A4E313335302058322E32323897
:1054E0002059312E3432350A4E3133353520583279
:1054F0002E3235342059312E3430350A4E31333680
:10550000302058322E3236382059312E3337330A74
:105510004E313336352058322E3237392059312E1C
:105520003334320A4E313337302058322E3330384C
:105530002059312E3238370A4E3133373520583220
:105540002E3334302059312E3235340A4E3133382F
:10555000302058322E3430372059312E3230310A33
:105560004E313338352058322E3434312059312ED3
:105570003135360A4E313339302058322E343534F5
:105580002059312E3133310A4E31333935205832DA
:105590002E3436302059312E3130360A4E313430E7
:1055A000302058322E3436342059312E3130320AE0
:1055B0004E313430352058322E3437312059312E87
:1055C0003033360A4E313431302058322E343636AC
:1055D0002059302E3937310A4E3134313520583286
:1055E0002E3435312059302E3839370A4E31343285
:1055F000302058322E3431352059302E3739310A87
:105600004E313432352058322E3430332059302E3A
:105610003736370A4E313433302058322E3338384B
:105620002059302E3736350A4E3134333520583232
:105630002E3330362059302E3834310A4E3134343E
:10564000302058322E3232322059302E3931310A40
:105650004E313434352058322E3131342059302EE9
:105660003939350A4E313435302058322E30303207
:105670002059312E3037360A4E31343535205831E5
:105680002E3930352059312E3133390A4E313436E6
:10569000302058312E3735342059312E3232330AEA
:1056A0004E313436352058312E3633372059312E8D
:1056B0003237380A4E313437302058312E353832AF
:1056C0002059312E3330310A4E313437352058319C
:1056D0002E3535382059312E3331350A4E31343894
:1056E000302058312E3436302059312E3335320A9D
:1056F0004E313438352058312E3339392059312E36
:105700003336300A4E313439302058312E33333865
:105710002059312E3335340A4E3134393520583141
:105720002E3238372059312E3332390A4E31353046
:10573000302058312E3234382059312E3239340A43
:105740004E313530352058312E3231372059312EF7
:105750003235340A4E313531302058312E32313421
:105760002059312E3235320A4E31353135205831FB
:105770002E3137322059312E3139350A4E313532FA
:10578000302058312E3132382059312E3133390AF8
:105790004E313532352058312E3131302059312EAD
:1057A0003131370A4E313533302058302E393538C3
:1057B0002059302E3934310A4E31353335205830A6
:1057C0002E3839312059302E3837330A4E3135349E
:1057D000302058302E3832352059302E3830380AA3
:1057E0004E313534352058302E3735352059302E4E
:1057F0003734370A4E313535302058302E3631396E
:105800002059302E3633330A4E3135353520583055
:105810002E3437372059302E3532360A4E31353650
:10582000302058302E3437372059302E3532340A54
:105830004E313536352058302E3431312059302E06
:105840003437360A4E313537302058302E33333125
:105850002059302E3435340A4E3135373520583002
:105860002E3237382059302E3432370A4E313538FF
:10587000302058302E3233312059302E3339370A08
:105880004E313538352058302E3138332059302EAE
:105890003337390A4E313539302058302E313335CF
:1058A0002059302E3336350A4E31353935205830AF
:1058B0002E3037362059302E3334310A4E313630BF
:1058C0003520473030204633302E300A4E313631C5
:1058D00030204D3035200A4E3136313520473930B1
:1058E000205830205930205A300A4E313631352078
:1058F0004D33300A28456E64206F6620434E4320A6
:1059000050726F6772616D2900284D53472A2A2A09
:105910002A204D6963726F737465702054657374C7
:10592000205B76315D202A2A2A2A290A4730302036
:10593000473137204732312047343020473439202F
:10594000473830204739300A6730783079307A303C
:105950000A7B22316D69223A317D0A7B22326D69E0
:10596000223A317D0A7B22336D69223A317D0A7BEE
:1059700022346D69223A317D0A6730207831300A4D
:105980007B22316D69223A327D0A78300A7B2231DE
:105990006D69223A347D0A7831300A7B22316D6993
:1059A000223A387D0A78300A6730207931300A7B14
:1059B00022326D69223A327D0A79300A7B22326DB9
:1059C00069223A347D0A7931300A7B22326D6922AC
:1059D0003A387D0A79300A6730207A31300A7B22E2
:1059E000336D69223A327D0A7A300A7B22336D693F
:1059F000223A347D0A7A31300A7B22336D69223AA9
:105A0000387D0A7A300A6730206131300A7B2234CF
:105A10006D69223A327D0A61300A7B22346D692237
:105A20003A347D0A6131300A7B22346D69223A387A
:105A30007D0A61300A6D3200284D53472A2A2A2AEE
:105A400020436F6F7264696E617465206F66667360
:105A50006574732074657374205B76315D202A2A27
:105A60002A2A290A67303067313767323167343084
:105A70006734396738306739300A6735340A67392F
:105A800032783079307A300A663630300A284D5311
:105A9000472A2A2A2A207465737420473932206FD6
:105AA0006666736574732A2A2A2A290A286D736721
:105AB0005374657020313A204D6F76652066726FA1
:105AC0006D20302C3020746F2033302C30206D6DE1
:105AD00020696E20706F7369746976652058206440
